{
  "_format": "hh-sol-artifact-1",
  "contractName": "MarkSheetContract",
  "sourceName": "contracts/Student.sol",
  "abi": [
    {
      "inputs": [
        {
          "components": [
            {
              "internalType": "string",
              "name": "name",
              "type": "string"
            },
            {
              "internalType": "string",
              "name": "rollno",
              "type": "string"
            },
            {
              "internalType": "string",
              "name": "fatherName",
              "type": "string"
            },
            {
              "internalType": "string",
              "name": "universityName",
              "type": "string"
            },
            {
              "internalType": "string",
              "name": "collegeName",
              "type": "string"
            },
            {
              "internalType": "string",
              "name": "degree",
              "type": "string"
            },
            {
              "internalType": "string",
              "name": "branch",
              "type": "string"
            },
            {
              "internalType": "string",
              "name": "status",
              "type": "string"
            }
          ],
          "internalType": "struct MarkSheetContract.Student",
          "name": "student",
          "type": "tuple"
        },
        {
          "internalType": "string",
          "name": "result",
          "type": "string"
        },
        {
          "internalType": "string",
          "name": "grade",
          "type": "string"
        },
        {
          "internalType": "uint256",
          "name": "semester",
          "type": "uint256"
        },
        {
          "internalType": "uint256",
          "name": "year",
          "type": "uint256"
        },
        {
          "components": [
            {
              "internalType": "string",
              "name": "code",
              "type": "string"
            },
            {
              "internalType": "string",
              "name": "name",
              "type": "string"
            },
            {
              "internalType": "string",
              "name": "grade",
              "type": "string"
            },
            {
              "internalType": "string",
              "name": "result",
              "type": "string"
            },
            {
              "internalType": "string",
              "name": "examType",
              "type": "string"
            }
          ],
          "internalType": "struct MarkSheetContract.Subject[]",
          "name": "_subjects",
          "type": "tuple[]"
        }
      ],
      "name": "addMarksheet",
      "outputs": [],
      "stateMutability": "nonpayable",
      "type": "function"
    },
    {
      "inputs": [
        {
          "internalType": "string",
          "name": "rollno",
          "type": "string"
        }
      ],
      "name": "getMarksheetByRollNo",
      "outputs": [
        {
          "components": [
            {
              "internalType": "string",
              "name": "name",
              "type": "string"
            },
            {
              "internalType": "string",
              "name": "rollno",
              "type": "string"
            },
            {
              "internalType": "string",
              "name": "fatherName",
              "type": "string"
            },
            {
              "internalType": "string",
              "name": "universityName",
              "type": "string"
            },
            {
              "internalType": "string",
              "name": "collegeName",
              "type": "string"
            },
            {
              "internalType": "string",
              "name": "degree",
              "type": "string"
            },
            {
              "internalType": "string",
              "name": "branch",
              "type": "string"
            },
            {
              "internalType": "string",
              "name": "status",
              "type": "string"
            }
          ],
          "internalType": "struct MarkSheetContract.Student",
          "name": "student",
          "type": "tuple"
        },
        {
          "components": [
            {
              "internalType": "string",
              "name": "code",
              "type": "string"
            },
            {
              "internalType": "string",
              "name": "name",
              "type": "string"
            },
            {
              "internalType": "string",
              "name": "grade",
              "type": "string"
            },
            {
              "internalType": "string",
              "name": "result",
              "type": "string"
            },
            {
              "internalType": "string",
              "name": "examType",
              "type": "string"
            }
          ],
          "internalType": "struct MarkSheetContract.Subject[][]",
          "name": "subjects",
          "type": "tuple[][]"
        },
        {
          "internalType": "uint256[]",
          "name": "semester",
          "type": "uint256[]"
        },
        {
          "internalType": "uint256[]",
          "name": "year",
          "type": "uint256[]"
        },
        {
          "internalType": "bytes32[]",
          "name": "hashes",
          "type": "bytes32[]"
        },
        {
          "internalType": "string[]",
          "name": "result",
          "type": "string[]"
        },
        {
          "internalType": "string[]",
          "name": "grade",
          "type": "string[]"
        },
        {
          "internalType": "uint256[]",
          "name": "timestamp",
          "type": "uint256[]"
        }
      ],
      "stateMutability": "view",
      "type": "function"
    },
    {
      "inputs": [
        {
          "internalType": "bytes32",
          "name": "hashValue",
          "type": "bytes32"
        }
      ],
      "name": "verifyMarksheet",
      "outputs": [
        {
          "internalType": "uint256",
          "name": "timestamp",
          "type": "uint256"
        },
        {
          "internalType": "uint256",
          "name": "semester",
          "type": "uint256"
        },
        {
          "internalType": "uint256",
          "name": "year",
          "type": "uint256"
        },
        {
          "internalType": "string",
          "name": "result",
          "type": "string"
        },
        {
          "internalType": "string",
          "name": "grade",
          "type": "string"
        },
        {
          "components": [
            {
              "internalType": "string",
              "name": "name",
              "type": "string"
            },
            {
              "internalType": "string",
              "name": "rollno",
              "type": "string"
            },
            {
              "internalType": "string",
              "name": "fatherName",
              "type": "string"
            },
            {
              "internalType": "string",
              "name": "universityName",
              "type": "string"
            },
            {
              "internalType": "string",
              "name": "collegeName",
              "type": "string"
            },
            {
              "internalType": "string",
              "name": "degree",
              "type": "string"
            },
            {
              "internalType": "string",
              "name": "branch",
              "type": "string"
            },
            {
              "internalType": "string",
              "name": "status",
              "type": "string"
            }
          ],
          "internalType": "struct MarkSheetContract.Student",
          "name": "student",
          "type": "tuple"
        },
        {
          "components": [
            {
              "internalType": "string",
              "name": "code",
              "type": "string"
            },
            {
              "internalType": "string",
              "name": "name",
              "type": "string"
            },
            {
              "internalType": "string",
              "name": "grade",
              "type": "string"
            },
            {
              "internalType": "string",
              "name": "result",
              "type": "string"
            },
            {
              "internalType": "string",
              "name": "examType",
              "type": "string"
            }
          ],
          "internalType": "struct MarkSheetContract.Subject[]",
          "name": "subjects",
          "type": "tuple[]"
        }
      ],
      "stateMutability": "view",
      "type": "function"
    }
  ],
  "bytecode": "0x608060405234801561001057600080fd5b50612e86806100206000396000f3fe608060405234801561001057600080fd5b50600436106100415760003560e01c80632cce29a714610046578063a55ebd801461007d578063caaeffdf146100b3575b600080fd5b610060600480360381019061005b9190611c3e565b6100cf565b60405161007498979695949392919061224f565b60405180910390f35b61009760048036038101906100929190612331565b610e4e565b6040516100aa979695949392919061243d565b60405180910390f35b6100cd60048036038101906100c891906128a6565b61182c565b005b6100d7611a70565b60608060608060608060606000805b60015481101561015257600080600083815260200190815260200160002090508b80519060200120816005016001016040516101229190612aa6565b60405180910390200361013e57828061013a90612aec565b9350505b50808061014a90612aec565b9150506100e6565b508067ffffffffffffffff81111561016d5761016c611b13565b5b6040519080825280602002602001820160405280156101a057816020015b606081526020019060019003908161018b5790505b5097508067ffffffffffffffff8111156101bd576101bc611b13565b5b6040519080825280602002602001820160405280156101eb5781602001602082028036833780820191505090505b5095508067ffffffffffffffff81111561020857610207611b13565b5b6040519080825280602002602001820160405280156102365781602001602082028036833780820191505090505b5096508067ffffffffffffffff81111561025357610252611b13565b5b6040519080825280602002602001820160405280156102815781602001602082028036833780820191505090505b5094508067ffffffffffffffff81111561029e5761029d611b13565b5b6040519080825280602002602001820160405280156102d157816020015b60608152602001906001900390816102bc5790505b5093508067ffffffffffffffff8111156102ee576102ed611b13565b5b60405190808252806020026020018201604052801561032157816020015b606081526020019060019003908161030c5790505b5092508067ffffffffffffffff81111561033e5761033d611b13565b5b60405190808252806020026020018201604052801561036c5781602001602082028036833780820191505090505b5091506000905060005b600154811015610e3557600080600083815260200190815260200160002090508b80519060200120816005016001016040516103b29190612aa6565b604051809103902003610e215780600f015467ffffffffffffffff8111156103dd576103dc611b13565b5b60405190808252806020026020018201604052801561041657816020015b610403611ab5565b8152602001906001900390816103fb5790505b508a848151811061042a57610429612b34565b5b602002602001018190525060005b81600f01548110156107895781600e0160008281526020019081526020016000206040518060a0016040529081600082018054610474906129d2565b80601f01602080910402602001604051908101604052809291908181526020018280546104a0906129d2565b80156104ed5780601f106104c2576101008083540402835291602001916104ed565b820191906000526020600020905b8154815290600101906020018083116104d057829003601f168201915b50505050508152602001600182018054610506906129d2565b80601f0160208091040260200160405190810160405280929190818152602001828054610532906129d2565b801561057f5780601f106105545761010080835404028352916020019161057f565b820191906000526020600020905b81548152906001019060200180831161056257829003601f168201915b50505050508152602001600282018054610598906129d2565b80601f01602080910402602001604051908101604052809291908181526020018280546105c4906129d2565b80156106115780601f106105e657610100808354040283529160200191610611565b820191906000526020600020905b8154815290600101906020018083116105f457829003601f168201915b5050505050815260200160038201805461062a906129d2565b80601f0160208091040260200160405190810160405280929190818152602001828054610656906129d2565b80156106a35780601f10610678576101008083540402835291602001916106a3565b820191906000526020600020905b81548152906001019060200180831161068657829003601f168201915b505050505081526020016004820180546106bc906129d2565b80601f01602080910402602001604051908101604052809291908181526020018280546106e8906129d2565b80156107355780601f1061070a57610100808354040283529160200191610735565b820191906000526020600020905b81548152906001019060200180831161071857829003601f168201915b5050505050815250508b858151811061075157610750612b34565b5b6020026020010151828151811061076b5761076a612b34565b5b6020026020010181905250808061078190612aec565b915050610438565b5080600501604051806101000160405290816000820180546107aa906129d2565b80601f01602080910402602001604051908101604052809291908181526020018280546107d6906129d2565b80156108235780601f106107f857610100808354040283529160200191610823565b820191906000526020600020905b81548152906001019060200180831161080657829003601f168201915b5050505050815260200160018201805461083c906129d2565b80601f0160208091040260200160405190810160405280929190818152602001828054610868906129d2565b80156108b55780601f1061088a576101008083540402835291602001916108b5565b820191906000526020600020905b81548152906001019060200180831161089857829003601f168201915b505050505081526020016002820180546108ce906129d2565b80601f01602080910402602001604051908101604052809291908181526020018280546108fa906129d2565b80156109475780601f1061091c57610100808354040283529160200191610947565b820191906000526020600020905b81548152906001019060200180831161092a57829003601f168201915b50505050508152602001600382018054610960906129d2565b80601f016020809104026020016040519081016040528092919081815260200182805461098c906129d2565b80156109d95780601f106109ae576101008083540402835291602001916109d9565b820191906000526020600020905b8154815290600101906020018083116109bc57829003601f168201915b505050505081526020016004820180546109f2906129d2565b80601f0160208091040260200160405190810160405280929190818152602001828054610a1e906129d2565b8015610a6b5780601f10610a4057610100808354040283529160200191610a6b565b820191906000526020600020905b815481529060010190602001808311610a4e57829003601f168201915b50505050508152602001600582018054610a84906129d2565b80601f0160208091040260200160405190810160405280929190818152602001828054610ab0906129d2565b8015610afd5780601f10610ad257610100808354040283529160200191610afd565b820191906000526020600020905b815481529060010190602001808311610ae057829003601f168201915b50505050508152602001600682018054610b16906129d2565b80601f0160208091040260200160405190810160405280929190818152602001828054610b42906129d2565b8015610b8f5780601f10610b6457610100808354040283529160200191610b8f565b820191906000526020600020905b815481529060010190602001808311610b7257829003601f168201915b50505050508152602001600782018054610ba8906129d2565b80601f0160208091040260200160405190810160405280929190818152602001828054610bd4906129d2565b8015610c215780601f10610bf657610100808354040283529160200191610c21565b820191906000526020600020905b815481529060010190602001808311610c0457829003601f168201915b5050505050815250509a508060020154888481518110610c4457610c43612b34565b5b6020026020010181815250508060010154898481518110610c6857610c67612b34565b5b60200260200101818152505080600d0154878481518110610c8c57610c8b612b34565b5b602002602001018181525050806003018054610ca7906129d2565b80601f0160208091040260200160405190810160405280929190818152602001828054610cd3906129d2565b8015610d205780601f10610cf557610100808354040283529160200191610d20565b820191906000526020600020905b815481529060010190602001808311610d0357829003601f168201915b5050505050868481518110610d3857610d37612b34565b5b6020026020010181905250806004018054610d52906129d2565b80601f0160208091040260200160405190810160405280929190818152602001828054610d7e906129d2565b8015610dcb5780601f10610da057610100808354040283529160200191610dcb565b820191906000526020600020905b815481529060010190602001808311610dae57829003601f168201915b5050505050858481518110610de357610de2612b34565b5b60200260200101819052508060000154848481518110610e0657610e05612b34565b5b6020026020010181815250508280610e1d90612aec565b9350505b508080610e2d90612aec565b915050610376565b5088888789985098509850985050919395975091939597565b6000806000606080610e5e611a70565b606060005b60015481101561181f57600080600083815260200190815260200160002090508981600d01540361180b5780600f015467ffffffffffffffff811115610eac57610eab611b13565b5b604051908082528060200260200182016040528015610ee557816020015b610ed2611ab5565b815260200190600190039081610eca5790505b50925060005b81600f01548110156112225781600e0160008281526020019081526020016000206040518060a0016040529081600082018054610f27906129d2565b80601f0160208091040260200160405190810160405280929190818152602001828054610f53906129d2565b8015610fa05780601f10610f7557610100808354040283529160200191610fa0565b820191906000526020600020905b815481529060010190602001808311610f8357829003601f168201915b50505050508152602001600182018054610fb9906129d2565b80601f0160208091040260200160405190810160405280929190818152602001828054610fe5906129d2565b80156110325780601f1061100757610100808354040283529160200191611032565b820191906000526020600020905b81548152906001019060200180831161101557829003601f168201915b5050505050815260200160028201805461104b906129d2565b80601f0160208091040260200160405190810160405280929190818152602001828054611077906129d2565b80156110c45780601f10611099576101008083540402835291602001916110c4565b820191906000526020600020905b8154815290600101906020018083116110a757829003601f168201915b505050505081526020016003820180546110dd906129d2565b80601f0160208091040260200160405190810160405280929190818152602001828054611109906129d2565b80156111565780601f1061112b57610100808354040283529160200191611156565b820191906000526020600020905b81548152906001019060200180831161113957829003601f168201915b5050505050815260200160048201805461116f906129d2565b80601f016020809104026020016040519081016040528092919081815260200182805461119b906129d2565b80156111e85780601f106111bd576101008083540402835291602001916111e8565b820191906000526020600020905b8154815290600101906020018083116111cb57829003601f168201915b50505050508152505084828151811061120457611203612b34565b5b6020026020010181905250808061121a90612aec565b915050610eeb565b508060000154816001015482600201548360030184600401856005018883805461124b906129d2565b80601f0160208091040260200160405190810160405280929190818152602001828054611277906129d2565b80156112c45780601f10611299576101008083540402835291602001916112c4565b820191906000526020600020905b8154815290600101906020018083116112a757829003601f168201915b505050505093508280546112d7906129d2565b80601f0160208091040260200160405190810160405280929190818152602001828054611303906129d2565b80156113505780601f1061132557610100808354040283529160200191611350565b820191906000526020600020905b81548152906001019060200180831161133357829003601f168201915b505050505092508160405180610100016040529081600082018054611374906129d2565b80601f01602080910402602001604051908101604052809291908181526020018280546113a0906129d2565b80156113ed5780601f106113c2576101008083540402835291602001916113ed565b820191906000526020600020905b8154815290600101906020018083116113d057829003601f168201915b50505050508152602001600182018054611406906129d2565b80601f0160208091040260200160405190810160405280929190818152602001828054611432906129d2565b801561147f5780601f106114545761010080835404028352916020019161147f565b820191906000526020600020905b81548152906001019060200180831161146257829003601f168201915b50505050508152602001600282018054611498906129d2565b80601f01602080910402602001604051908101604052809291908181526020018280546114c4906129d2565b80156115115780601f106114e657610100808354040283529160200191611511565b820191906000526020600020905b8154815290600101906020018083116114f457829003601f168201915b5050505050815260200160038201805461152a906129d2565b80601f0160208091040260200160405190810160405280929190818152602001828054611556906129d2565b80156115a35780601f10611578576101008083540402835291602001916115a3565b820191906000526020600020905b81548152906001019060200180831161158657829003601f168201915b505050505081526020016004820180546115bc906129d2565b80601f01602080910402602001604051908101604052809291908181526020018280546115e8906129d2565b80156116355780601f1061160a57610100808354040283529160200191611635565b820191906000526020600020905b81548152906001019060200180831161161857829003601f168201915b5050505050815260200160058201805461164e906129d2565b80601f016020809104026020016040519081016040528092919081815260200182805461167a906129d2565b80156116c75780601f1061169c576101008083540402835291602001916116c7565b820191906000526020600020905b8154815290600101906020018083116116aa57829003601f168201915b505050505081526020016006820180546116e0906129d2565b80601f016020809104026020016040519081016040528092919081815260200182805461170c906129d2565b80156117595780601f1061172e57610100808354040283529160200191611759565b820191906000526020600020905b81548152906001019060200180831161173c57829003601f168201915b50505050508152602001600782018054611772906129d2565b80601f016020809104026020016040519081016040528092919081815260200182805461179e906129d2565b80156117eb5780601f106117c0576101008083540402835291602001916117eb565b820191906000526020600020905b8154815290600101906020018083116117ce57829003601f168201915b505050505081525050915098509850985098509850985098505050611821565b50808061181790612aec565b915050610e63565b505b919395979092949650565b60008060006001600081548092919061184490612aec565b9190505581526020019081526020016000209050838160010181905550828160020181905550868160050160008201518160000190816118849190612d0f565b50602082015181600101908161189a9190612d0f565b5060408201518160020190816118b09190612d0f565b5060608201518160030190816118c69190612d0f565b5060808201518160040190816118dc9190612d0f565b5060a08201518160050190816118f29190612d0f565b5060c08201518160060190816119089190612d0f565b5060e082015181600701908161191e9190612d0f565b50905050848160040190816119339190612d0f565b50858160030190816119459190612d0f565b50428160000181905550600043428987878760405160200161196c96959493929190612de1565b6040516020818303038152906040528051906020012090508082600d018190555060005b8351811015611a65578381815181106119ac576119ab612b34565b5b602002602001015183600e01600085600f0160008154809291906119cf90612aec565b91905055815260200190815260200160002060008201518160000190816119f69190612d0f565b506020820151816001019081611a0c9190612d0f565b506040820151816002019081611a229190612d0f565b506060820151816003019081611a389190612d0f565b506080820151816004019081611a4e9190612d0f565b509050508080611a5d90612aec565b915050611990565b505050505050505050565b60405180610100016040528060608152602001606081526020016060815260200160608152602001606081526020016060815260200160608152602001606081525090565b6040518060a0016040528060608152602001606081526020016060815260200160608152602001606081525090565b6000604051905090565b600080fd5b600080fd5b600080fd5b600080fd5b6000601f19601f8301169050919050565b7f4e487b7100000000000000000000000000000000000000000000000000000000600052604160045260246000fd5b611b4b82611b02565b810181811067ffffffffffffffff82111715611b6a57611b69611b13565b5b80604052505050565b6000611b7d611ae4565b9050611b898282611b42565b919050565b600067ffffffffffffffff821115611ba957611ba8611b13565b5b611bb282611b02565b9050602081019050919050565b82818337600083830152505050565b6000611be1611bdc84611b8e565b611b73565b905082815260208101848484011115611bfd57611bfc611afd565b5b611c08848285611bbf565b509392505050565b600082601f830112611c2557611c24611af8565b5b8135611c35848260208601611bce565b91505092915050565b600060208284031215611c5457611c53611aee565b5b600082013567ffffffffffffffff811115611c7257611c71611af3565b5b611c7e84828501611c10565b91505092915050565b600081519050919050565b600082825260208201905092915050565b60005b83811015611cc1578082015181840152602081019050611ca6565b60008484015250505050565b6000611cd882611c87565b611ce28185611c92565b9350611cf2818560208601611ca3565b611cfb81611b02565b840191505092915050565b6000610100830160008301518482036000860152611d248282611ccd565b91505060208301518482036020860152611d3e8282611ccd565b91505060408301518482036040860152611d588282611ccd565b91505060608301518482036060860152611d728282611ccd565b91505060808301518482036080860152611d8c8282611ccd565b91505060a083015184820360a0860152611da68282611ccd565b91505060c083015184820360c0860152611dc08282611ccd565b91505060e083015184820360e0860152611dda8282611ccd565b9150508091505092915050565b600081519050919050565b600082825260208201905092915050565b6000819050602082019050919050565b600081519050919050565b600082825260208201905092915050565b6000819050602082019050919050565b600060a0830160008301518482036000860152611e5c8282611ccd565b91505060208301518482036020860152611e768282611ccd565b91505060408301518482036040860152611e908282611ccd565b91505060608301518482036060860152611eaa8282611ccd565b91505060808301518482036080860152611ec48282611ccd565b9150508091505092915050565b6000611edd8383611e3f565b905092915050565b6000602082019050919050565b6000611efd82611e13565b611f078185611e1e565b935083602082028501611f1985611e2f565b8060005b85811015611f555784840389528151611f368582611ed1565b9450611f4183611ee5565b925060208a01995050600181019050611f1d565b50829750879550505050505092915050565b6000611f738383611ef2565b905092915050565b6000602082019050919050565b6000611f9382611de7565b611f9d8185611df2565b935083602082028501611faf85611e03565b8060005b85811015611feb5784840389528151611fcc8582611f67565b9450611fd783611f7b565b925060208a01995050600181019050611fb3565b50829750879550505050505092915050565b600081519050919050565b600082825260208201905092915050565b6000819050602082019050919050565b6000819050919050565b61203c81612029565b82525050565b600061204e8383612033565b60208301905092915050565b6000602082019050919050565b600061207282611ffd565b61207c8185612008565b935061208783612019565b8060005b838110156120b857815161209f8882612042565b97506120aa8361205a565b92505060018101905061208b565b5085935050505092915050565b600081519050919050565b600082825260208201905092915050565b6000819050602082019050919050565b6000819050919050565b612104816120f1565b82525050565b600061211683836120fb565b60208301905092915050565b6000602082019050919050565b600061213a826120c5565b61214481856120d0565b935061214f836120e1565b8060005b83811015612180578151612167888261210a565b975061217283612122565b925050600181019050612153565b5085935050505092915050565b600081519050919050565b600082825260208201905092915050565b6000819050602082019050919050565b60006121c58383611ccd565b905092915050565b6000602082019050919050565b60006121e58261218d565b6121ef8185612198565b935083602082028501612201856121a9565b8060005b8581101561223d578484038952815161221e85826121b9565b9450612229836121cd565b925060208a01995050600181019050612205565b50829750879550505050505092915050565b600061010082019050818103600083015261226a818b611d06565b9050818103602083015261227e818a611f88565b905081810360408301526122928189612067565b905081810360608301526122a68188612067565b905081810360808301526122ba818761212f565b905081810360a08301526122ce81866121da565b905081810360c08301526122e281856121da565b905081810360e08301526122f68184612067565b90509998505050505050505050565b61230e816120f1565b811461231957600080fd5b50565b60008135905061232b81612305565b92915050565b60006020828403121561234757612346611aee565b5b60006123558482850161231c565b91505092915050565b61236781612029565b82525050565b600082825260208201905092915050565b600061238982611c87565b612393818561236d565b93506123a3818560208601611ca3565b6123ac81611b02565b840191505092915050565b600082825260208201905092915050565b60006123d382611e13565b6123dd81856123b7565b9350836020820285016123ef85611e2f565b8060005b8581101561242b578484038952815161240c8582611ed1565b945061241783611ee5565b925060208a019950506001810190506123f3565b50829750879550505050505092915050565b600060e082019050612452600083018a61235e565b61245f602083018961235e565b61246c604083018861235e565b818103606083015261247e818761237e565b90508181036080830152612492818661237e565b905081810360a08301526124a68185611d06565b905081810360c08301526124ba81846123c8565b905098975050505050505050565b600080fd5b600080fd5b600061010082840312156124e9576124e86124c8565b5b6124f4610100611b73565b9050600082013567ffffffffffffffff811115612514576125136124cd565b5b61252084828501611c10565b600083015250602082013567ffffffffffffffff811115612544576125436124cd565b5b61255084828501611c10565b602083015250604082013567ffffffffffffffff811115612574576125736124cd565b5b61258084828501611c10565b604083015250606082013567ffffffffffffffff8111156125a4576125a36124cd565b5b6125b084828501611c10565b606083015250608082013567ffffffffffffffff8111156125d4576125d36124cd565b5b6125e084828501611c10565b60808301525060a082013567ffffffffffffffff811115612604576126036124cd565b5b61261084828501611c10565b60a08301525060c082013567ffffffffffffffff811115612634576126336124cd565b5b61264084828501611c10565b60c08301525060e082013567ffffffffffffffff811115612664576126636124cd565b5b61267084828501611c10565b60e08301525092915050565b61268581612029565b811461269057600080fd5b50565b6000813590506126a28161267c565b92915050565b600067ffffffffffffffff8211156126c3576126c2611b13565b5b602082029050602081019050919050565b600080fd5b600060a082840312156126ef576126ee6124c8565b5b6126f960a0611b73565b9050600082013567ffffffffffffffff811115612719576127186124cd565b5b61272584828501611c10565b600083015250602082013567ffffffffffffffff811115612749576127486124cd565b5b61275584828501611c10565b602083015250604082013567ffffffffffffffff811115612779576127786124cd565b5b61278584828501611c10565b604083015250606082013567ffffffffffffffff8111156127a9576127a86124cd565b5b6127b584828501611c10565b606083015250608082013567ffffffffffffffff8111156127d9576127d86124cd565b5b6127e584828501611c10565b60808301525092915050565b60006128046127ff846126a8565b611b73565b90508083825260208201905060208402830185811115612827576128266126d4565b5b835b8181101561286e57803567ffffffffffffffff81111561284c5761284b611af8565b5b80860161285989826126d9565b85526020850194505050602081019050612829565b5050509392505050565b600082601f83011261288d5761288c611af8565b5b813561289d8482602086016127f1565b91505092915050565b60008060008060008060c087890312156128c3576128c2611aee565b5b600087013567ffffffffffffffff8111156128e1576128e0611af3565b5b6128ed89828a016124d2565b965050602087013567ffffffffffffffff81111561290e5761290d611af3565b5b61291a89828a01611c10565b955050604087013567ffffffffffffffff81111561293b5761293a611af3565b5b61294789828a01611c10565b945050606061295889828a01612693565b935050608061296989828a01612693565b92505060a087013567ffffffffffffffff81111561298a57612989611af3565b5b61299689828a01612878565b9150509295509295509295565b7f4e487b7100000000000000000000000000000000000000000000000000000000600052602260045260246000fd5b600060028204905060018216806129ea57607f821691505b6020821081036129fd576129fc6129a3565b5b50919050565b600081905092915050565b60008190508160005260206000209050919050565b60008154612a30816129d2565b612a3a8186612a03565b94506001821660008114612a555760018114612a6a57612a9d565b60ff1983168652811515820286019350612a9d565b612a7385612a0e565b60005b83811015612a9557815481890152600182019150602081019050612a76565b838801955050505b50505092915050565b6000612ab28284612a23565b915081905092915050565b7f4e487b7100000000000000000000000000000000000000000000000000000000600052601160045260246000fd5b6000612af782612029565b91507fffffffffffffffffffffffffffffffffffffffffffffffffffffffffffffffff8203612b2957612b28612abd565b5b600182019050919050565b7f4e487b7100000000000000000000000000000000000000000000000000000000600052603260045260246000fd5b60008190508160005260206000209050919050565b60006020601f8301049050919050565b600082821b905092915050565b600060088302612bc57fffffffffffffffffffffffffffffffffffffffffffffffffffffffffffffffff82612b88565b612bcf8683612b88565b95508019841693508086168417925050509392505050565b6000819050919050565b6000612c0c612c07612c0284612029565b612be7565b612029565b9050919050565b6000819050919050565b612c2683612bf1565b612c3a612c3282612c13565b848454612b95565b825550505050565b600090565b612c4f612c42565b612c5a818484612c1d565b505050565b5b81811015612c7e57612c73600082612c47565b600181019050612c60565b5050565b601f821115612cc357612c9481612b63565b612c9d84612b78565b81016020851015612cac578190505b612cc0612cb885612b78565b830182612c5f565b50505b505050565b600082821c905092915050565b6000612ce660001984600802612cc8565b1980831691505092915050565b6000612cff8383612cd5565b9150826002028217905092915050565b612d1882611c87565b67ffffffffffffffff811115612d3157612d30611b13565b5b612d3b82546129d2565b612d46828285612c82565b600060209050601f831160018114612d795760008415612d67578287015190505b612d718582612cf3565b865550612dd9565b601f198416612d8786612b63565b60005b82811015612daf57848901518255600182019150602085019450602081019050612d8a565b86831015612dcc5784890151612dc8601f891682612cd5565b8355505b6001600288020188555050505b505050505050565b600060c082019050612df6600083018961235e565b612e03602083018861235e565b8181036040830152612e158187611d06565b9050612e24606083018661235e565b612e31608083018561235e565b81810360a0830152612e4381846123c8565b905097965050505050505056fea2646970667358221220673b3dd3a0d3540323ce2171f34bc0c4ce97877db70059059ae13081b27585a964736f6c63430008120033",
  "linkReferences": {},
  "deployedLinkReferences": {}
}